{
  "contractName": "Sdt",
  "abi": [
    {
      "constant": true,
      "inputs": [],
      "name": "name",
      "outputs": [
        {
          "name": "",
          "type": "string"
        }
      ],
      "payable": false,
      "stateMutability": "view",
      "type": "function"
    },
    {
      "constant": false,
      "inputs": [
        {
          "name": "spender",
          "type": "address"
        },
        {
          "name": "amount",
          "type": "uint256"
        }
      ],
      "name": "approve",
      "outputs": [
        {
          "name": "",
          "type": "bool"
        }
      ],
      "payable": false,
      "stateMutability": "nonpayable",
      "type": "function"
    },
    {
      "constant": true,
      "inputs": [],
      "name": "totalSupply",
      "outputs": [
        {
          "name": "",
          "type": "uint256"
        }
      ],
      "payable": false,
      "stateMutability": "view",
      "type": "function"
    },
    {
      "constant": true,
      "inputs": [],
      "name": "decimals",
      "outputs": [
        {
          "name": "",
          "type": "uint8"
        }
      ],
      "payable": false,
      "stateMutability": "view",
      "type": "function"
    },
    {
      "constant": false,
      "inputs": [
        {
          "name": "spender",
          "type": "address"
        },
        {
          "name": "addedValue",
          "type": "uint256"
        }
      ],
      "name": "increaseAllowance",
      "outputs": [
        {
          "name": "",
          "type": "bool"
        }
      ],
      "payable": false,
      "stateMutability": "nonpayable",
      "type": "function"
    },
    {
      "constant": false,
      "inputs": [
        {
          "name": "account",
          "type": "address"
        },
        {
          "name": "amount",
          "type": "uint256"
        }
      ],
      "name": "mint",
      "outputs": [
        {
          "name": "",
          "type": "bool"
        }
      ],
      "payable": false,
      "stateMutability": "nonpayable",
      "type": "function"
    },
    {
      "constant": true,
      "inputs": [
        {
          "name": "account",
          "type": "address"
        }
      ],
      "name": "balanceOf",
      "outputs": [
        {
          "name": "",
          "type": "uint256"
        }
      ],
      "payable": false,
      "stateMutability": "view",
      "type": "function"
    },
    {
      "constant": true,
      "inputs": [],
      "name": "symbol",
      "outputs": [
        {
          "name": "",
          "type": "string"
        }
      ],
      "payable": false,
      "stateMutability": "view",
      "type": "function"
    },
    {
      "constant": false,
      "inputs": [
        {
          "name": "account",
          "type": "address"
        }
      ],
      "name": "addMinter",
      "outputs": [],
      "payable": false,
      "stateMutability": "nonpayable",
      "type": "function"
    },
    {
      "constant": false,
      "inputs": [],
      "name": "renounceMinter",
      "outputs": [],
      "payable": false,
      "stateMutability": "nonpayable",
      "type": "function"
    },
    {
      "constant": false,
      "inputs": [
        {
          "name": "spender",
          "type": "address"
        },
        {
          "name": "subtractedValue",
          "type": "uint256"
        }
      ],
      "name": "decreaseAllowance",
      "outputs": [
        {
          "name": "",
          "type": "bool"
        }
      ],
      "payable": false,
      "stateMutability": "nonpayable",
      "type": "function"
    },
    {
      "constant": true,
      "inputs": [
        {
          "name": "account",
          "type": "address"
        }
      ],
      "name": "isMinter",
      "outputs": [
        {
          "name": "",
          "type": "bool"
        }
      ],
      "payable": false,
      "stateMutability": "view",
      "type": "function"
    },
    {
      "constant": true,
      "inputs": [
        {
          "name": "",
          "type": "address"
        }
      ],
      "name": "reserves",
      "outputs": [
        {
          "name": "",
          "type": "uint256"
        }
      ],
      "payable": false,
      "stateMutability": "view",
      "type": "function"
    },
    {
      "constant": true,
      "inputs": [
        {
          "name": "owner",
          "type": "address"
        },
        {
          "name": "spender",
          "type": "address"
        }
      ],
      "name": "allowance",
      "outputs": [
        {
          "name": "",
          "type": "uint256"
        }
      ],
      "payable": false,
      "stateMutability": "view",
      "type": "function"
    },
    {
      "inputs": [
        {
          "name": "_symbol",
          "type": "string"
        },
        {
          "name": "_name",
          "type": "string"
        },
        {
          "name": "_owner",
          "type": "address"
        },
        {
          "name": "_admin",
          "type": "address"
        },
        {
          "name": "_vault",
          "type": "address"
        }
      ],
      "payable": false,
      "stateMutability": "nonpayable",
      "type": "constructor"
    },
    {
      "anonymous": false,
      "inputs": [
        {
          "indexed": true,
          "name": "previousOwner",
          "type": "address"
        },
        {
          "indexed": true,
          "name": "newOwner",
          "type": "address"
        }
      ],
      "name": "OwnerChanged",
      "type": "event"
    },
    {
      "anonymous": false,
      "inputs": [
        {
          "indexed": true,
          "name": "previousVault",
          "type": "address"
        },
        {
          "indexed": true,
          "name": "newVault",
          "type": "address"
        }
      ],
      "name": "VaultChanged",
      "type": "event"
    },
    {
      "anonymous": false,
      "inputs": [
        {
          "indexed": true,
          "name": "previousAdmin",
          "type": "address"
        },
        {
          "indexed": true,
          "name": "newAdmin",
          "type": "address"
        }
      ],
      "name": "AdminChanged",
      "type": "event"
    },
    {
      "anonymous": false,
      "inputs": [
        {
          "indexed": true,
          "name": "_address",
          "type": "address"
        },
        {
          "indexed": false,
          "name": "amount",
          "type": "uint256"
        }
      ],
      "name": "ReserveChanged",
      "type": "event"
    },
    {
      "anonymous": false,
      "inputs": [
        {
          "indexed": true,
          "name": "from",
          "type": "address"
        },
        {
          "indexed": false,
          "name": "amount",
          "type": "uint256"
        }
      ],
      "name": "Recalled",
      "type": "event"
    },
    {
      "anonymous": false,
      "inputs": [
        {
          "indexed": false,
          "name": "message",
          "type": "string"
        },
        {
          "indexed": false,
          "name": "value",
          "type": "bytes32"
        }
      ],
      "name": "MsgAndValue",
      "type": "event"
    },
    {
      "anonymous": false,
      "inputs": [
        {
          "indexed": true,
          "name": "account",
          "type": "address"
        }
      ],
      "name": "MinterAdded",
      "type": "event"
    },
    {
      "anonymous": false,
      "inputs": [
        {
          "indexed": true,
          "name": "account",
          "type": "address"
        }
      ],
      "name": "MinterRemoved",
      "type": "event"
    },
    {
      "anonymous": false,
      "inputs": [
        {
          "indexed": true,
          "name": "from",
          "type": "address"
        },
        {
          "indexed": true,
          "name": "to",
          "type": "address"
        },
        {
          "indexed": false,
          "name": "value",
          "type": "uint256"
        }
      ],
      "name": "Transfer",
      "type": "event"
    },
    {
      "anonymous": false,
      "inputs": [
        {
          "indexed": true,
          "name": "owner",
          "type": "address"
        },
        {
          "indexed": true,
          "name": "spender",
          "type": "address"
        },
        {
          "indexed": false,
          "name": "value",
          "type": "uint256"
        }
      ],
      "name": "Approval",
      "type": "event"
    },
    {
      "constant": false,
      "inputs": [
        {
          "name": "_address",
          "type": "address"
        },
        {
          "name": "_reserve",
          "type": "uint256"
        }
      ],
      "name": "setReserve",
      "outputs": [],
      "payable": false,
      "stateMutability": "nonpayable",
      "type": "function"
    },
    {
      "constant": false,
      "inputs": [
        {
          "name": "_to",
          "type": "address"
        },
        {
          "name": "_value",
          "type": "uint256"
        }
      ],
      "name": "transfer",
      "outputs": [
        {
          "name": "",
          "type": "bool"
        }
      ],
      "payable": false,
      "stateMutability": "nonpayable",
      "type": "function"
    },
    {
      "constant": false,
      "inputs": [
        {
          "name": "_newVault",
          "type": "address"
        }
      ],
      "name": "setVault",
      "outputs": [],
      "payable": false,
      "stateMutability": "nonpayable",
      "type": "function"
    },
    {
      "constant": false,
      "inputs": [
        {
          "name": "_newOwner",
          "type": "address"
        }
      ],
      "name": "setOwner",
      "outputs": [],
      "payable": false,
      "stateMutability": "nonpayable",
      "type": "function"
    },
    {
      "constant": false,
      "inputs": [
        {
          "name": "_newAdmin",
          "type": "address"
        }
      ],
      "name": "setAdmin",
      "outputs": [],
      "payable": false,
      "stateMutability": "nonpayable",
      "type": "function"
    },
    {
      "constant": false,
      "inputs": [
        {
          "name": "_from",
          "type": "address"
        },
        {
          "name": "_amount",
          "type": "uint256"
        }
      ],
      "name": "recall",
      "outputs": [],
      "payable": false,
      "stateMutability": "nonpayable",
      "type": "function"
    },
    {
      "constant": false,
      "inputs": [
        {
          "name": "_from",
          "type": "address"
        },
        {
          "name": "_to",
          "type": "address"
        },
        {
          "name": "_value",
          "type": "uint256"
        }
      ],
      "name": "transferFrom",
      "outputs": [
        {
          "name": "",
          "type": "bool"
        }
      ],
      "payable": false,
      "stateMutability": "nonpayable",
      "type": "function"
    },
    {
      "constant": true,
      "inputs": [],
      "name": "getOwner",
      "outputs": [
        {
          "name": "",
          "type": "address"
        }
      ],
      "payable": false,
      "stateMutability": "view",
      "type": "function"
    },
    {
      "constant": true,
      "inputs": [],
      "name": "getVault",
      "outputs": [
        {
          "name": "",
          "type": "address"
        }
      ],
      "payable": false,
      "stateMutability": "view",
      "type": "function"
    },
    {
      "constant": true,
      "inputs": [],
      "name": "getAdmin",
      "outputs": [
        {
          "name": "",
          "type": "address"
        }
      ],
      "payable": false,
      "stateMutability": "view",
      "type": "function"
    },
    {
      "constant": true,
      "inputs": [],
      "name": "getOneSdt",
      "outputs": [
        {
          "name": "",
          "type": "uint256"
        }
      ],
      "payable": false,
      "stateMutability": "view",
      "type": "function"
    },
    {
      "constant": true,
      "inputs": [
        {
          "name": "_address",
          "type": "address"
        }
      ],
      "name": "reserveOf",
      "outputs": [
        {
          "name": "_reserve",
          "type": "uint256"
        }
      ],
      "payable": false,
      "stateMutability": "view",
      "type": "function"
    },
    {
      "constant": true,
      "inputs": [],
      "name": "reserve",
      "outputs": [
        {
          "name": "_reserve",
          "type": "uint256"
        }
      ],
      "payable": false,
      "stateMutability": "view",
      "type": "function"
    }
  ],
  "bytecode": "0x6080604052633b9aca006007553480156200001957600080fd5b506040516200330e3803806200330e833981018060405260a08110156200003f57600080fd5b8101908080516401000000008111156200005857600080fd5b828101905060208101848111156200006f57600080fd5b81518560018202830111640100000000821117156200008d57600080fd5b50509291906020018051640100000000811115620000aa57600080fd5b82810190506020810184811115620000c157600080fd5b8151856001820283011164010000000082111715620000df57600080fd5b5050929190602001805190602001909291908051906020019092919080519060200190929190505050838560096200012c62000120620002b560201b60201c565b620002bd60201b60201c565b8260049080519060200190620001449291906200074c565b5081600590805190602001906200015d9291906200074c565b5080600660006101000a81548160ff021916908360ff16021790555050505060008551116200018b57600080fd5b60008451116200019a57600080fd5b82600960006101000a81548173ffffffffffffffffffffffffffffffffffffffff021916908373ffffffffffffffffffffffffffffffffffffffff16021790555081600a60006101000a81548173ffffffffffffffffffffffffffffffffffffffff021916908373ffffffffffffffffffffffffffffffffffffffff16021790555080600860006101000a81548173ffffffffffffffffffffffffffffffffffffffff021916908373ffffffffffffffffffffffffffffffffffffffff160217905550620002aa600860009054906101000a900473ffffffffffffffffffffffffffffffffffffffff16620002946200031e60201b60201c565b60ff16600a0a600754026200033560201b60201c565b5050505050620007fb565b600033905090565b620002d8816003620004ff60201b620027a91790919060201c565b8073ffffffffffffffffffffffffffffffffffffffff167f6ae172837ea30b801fbfcdd4108aa1d5bf8ff775444fd70256b44e6bf3dfc3f660405160405180910390a250565b6000600660009054906101000a900460ff16905090565b600073ffffffffffffffffffffffffffffffffffffffff168273ffffffffffffffffffffffffffffffffffffffff161415620003d9576040517f08c379a000000000000000000000000000000000000000000000000000000000815260040180806020018281038252601f8152602001807f45524332303a206d696e7420746f20746865207a65726f20616464726573730081525060200191505060405180910390fd5b620003f581600254620005e360201b620022f61790919060201c565b60028190555062000453816000808573ffffffffffffffffffffffffffffffffffffffff1673ffffffffffffffffffffffffffffffffffffffff16815260200190815260200160002054620005e360201b620022f61790919060201c565b6000808473ffffffffffffffffffffffffffffffffffffffff1673ffffffffffffffffffffffffffffffffffffffff168152602001908152602001600020819055508173ffffffffffffffffffffffffffffffffffffffff16600073ffffffffffffffffffffffffffffffffffffffff167fddf252ad1be2c89b69c2b068fc378daa952ba7f163c4a11628f55a4df523b3ef836040518082815260200191505060405180910390a35050565b6200051182826200066c60201b60201c565b1562000585576040517f08c379a000000000000000000000000000000000000000000000000000000000815260040180806020018281038252601f8152602001807f526f6c65733a206163636f756e7420616c72656164792068617320726f6c650081525060200191505060405180910390fd5b60018260000160008373ffffffffffffffffffffffffffffffffffffffff1673ffffffffffffffffffffffffffffffffffffffff16815260200190815260200160002060006101000a81548160ff0219169083151502179055505050565b60008082840190508381101562000662576040517f08c379a000000000000000000000000000000000000000000000000000000000815260040180806020018281038252601b8152602001807f536166654d6174683a206164646974696f6e206f766572666c6f77000000000081525060200191505060405180910390fd5b8091505092915050565b60008073ffffffffffffffffffffffffffffffffffffffff168273ffffffffffffffffffffffffffffffffffffffff161415620006f5576040517f08c379a0000000000000000000000000000000000000000000000000000000008152600401808060200182810382526022815260200180620032ec6022913960400191505060405180910390fd5b8260000160008373ffffffffffffffffffffffffffffffffffffffff1673ffffffffffffffffffffffffffffffffffffffff16815260200190815260200160002060009054906101000a900460ff16905092915050565b828054600181600116156101000203166002900490600052602060002090601f016020900481019282601f106200078f57805160ff1916838001178555620007c0565b82800160010185558215620007c0579182015b82811115620007bf578251825591602001919060010190620007a2565b5b509050620007cf9190620007d3565b5090565b620007f891905b80821115620007f4576000816000905550600101620007da565b5090565b90565b612ae1806200080b6000396000f3fe608060405234801561001057600080fd5b50600436106101a95760003560e01c806378250b63116100f9578063a457c2d711610097578063b83c6da011610071578063b83c6da01461091a578063cd3293de14610938578063d66bd52414610956578063dd62ed3e146109ae576101a9565b8063a457c2d7146107f2578063a9059cbb14610858578063aa271e1a146108be576101a9565b806395d89b41116100d357806395d89b41146106c9578063983b2d561461074c57806398650275146107905780639fa77b201461079a576101a9565b806378250b63146105e7578063893d20e8146106355780638d928af81461067f576101a9565b8063313ce567116101665780636817031b116101405780636817031b146104bd5780636e9960c314610501578063704b6c021461054b57806370a082311461058f576101a9565b8063313ce567146103cd57806339509351146103f157806340c10f1914610457576101a9565b806306fdde03146101ae578063095ea7b31461023157806313af40351461029757806318160ddd146102db5780631f035c7a146102f957806323b872dd14610347575b600080fd5b6101b6610a26565b6040518080602001828103825283818151815260200191508051906020019080838360005b838110156101f65780820151818401526020810190506101db565b50505050905090810190601f1680156102235780820380516001836020036101000a031916815260200191505b509250505060405180910390f35b61027d6004803603604081101561024757600080fd5b81019080803573ffffffffffffffffffffffffffffffffffffffff16906020019092919080359060200190929190505050610ac8565b604051808215151515815260200191505060405180910390f35b6102d9600480360360208110156102ad57600080fd5b81019080803573ffffffffffffffffffffffffffffffffffffffff169060200190929190505050610ae6565b005b6102e3610c95565b6040518082815260200191505060405180910390f35b6103456004803603604081101561030f57600080fd5b81019080803573ffffffffffffffffffffffffffffffffffffffff16906020019092919080359060200190929190505050610c9f565b005b6103b36004803603606081101561035d57600080fd5b81019080803573ffffffffffffffffffffffffffffffffffffffff169060200190929190803573ffffffffffffffffffffffffffffffffffffffff16906020019092919080359060200190929190505050610e8f565b604051808215151515815260200191505060405180910390f35b6103d5610f0b565b604051808260ff1660ff16815260200191505060405180910390f35b61043d6004803603604081101561040757600080fd5b81019080803573ffffffffffffffffffffffffffffffffffffffff16906020019092919080359060200190929190505050610f22565b604051808215151515815260200191505060405180910390f35b6104a36004803603604081101561046d57600080fd5b81019080803573ffffffffffffffffffffffffffffffffffffffff16906020019092919080359060200190929190505050610fd5565b604051808215151515815260200191505060405180910390f35b6104ff600480360360208110156104d357600080fd5b81019080803573ffffffffffffffffffffffffffffffffffffffff169060200190929190505050611050565b005b61050961126f565b604051808273ffffffffffffffffffffffffffffffffffffffff1673ffffffffffffffffffffffffffffffffffffffff16815260200191505060405180910390f35b61058d6004803603602081101561056157600080fd5b81019080803573ffffffffffffffffffffffffffffffffffffffff1690602001909291905050506113a3565b005b6105d1600480360360208110156105a557600080fd5b81019080803573ffffffffffffffffffffffffffffffffffffffff1690602001909291905050506115aa565b6040518082815260200191505060405180910390f35b610633600480360360408110156105fd57600080fd5b81019080803573ffffffffffffffffffffffffffffffffffffffff169060200190929190803590602001909291905050506115f2565b005b61063d611730565b604051808273ffffffffffffffffffffffffffffffffffffffff1673ffffffffffffffffffffffffffffffffffffffff16815260200191505060405180910390f35b610687611864565b604051808273ffffffffffffffffffffffffffffffffffffffff1673ffffffffffffffffffffffffffffffffffffffff16815260200191505060405180910390f35b6106d1611998565b6040518080602001828103825283818151815260200191508051906020019080838360005b838110156107115780820151818401526020810190506106f6565b50505050905090810190601f16801561073e5780820380516001836020036101000a031916815260200191505b509250505060405180910390f35b61078e6004803603602081101561076257600080fd5b81019080803573ffffffffffffffffffffffffffffffffffffffff169060200190929190505050611a3a565b005b610798611aab565b005b6107dc600480360360208110156107b057600080fd5b81019080803573ffffffffffffffffffffffffffffffffffffffff169060200190929190505050611abd565b6040518082815260200191505060405180910390f35b61083e6004803603604081101561080857600080fd5b81019080803573ffffffffffffffffffffffffffffffffffffffff16906020019092919080359060200190929190505050611b06565b604051808215151515815260200191505060405180910390f35b6108a46004803603604081101561086e57600080fd5b81019080803573ffffffffffffffffffffffffffffffffffffffff16906020019092919080359060200190929190505050611bd3565b604051808215151515815260200191505060405180910390f35b610900600480360360208110156108d457600080fd5b81019080803573ffffffffffffffffffffffffffffffffffffffff169060200190929190505050611c06565b604051808215151515815260200191505060405180910390f35b610922611c23565b6040518082815260200191505060405180910390f35b610940611c38565b6040518082815260200191505060405180910390f35b6109986004803603602081101561096c57600080fd5b81019080803573ffffffffffffffffffffffffffffffffffffffff169060200190929190505050611c7f565b6040518082815260200191505060405180910390f35b610a10600480360360408110156109c457600080fd5b81019080803573ffffffffffffffffffffffffffffffffffffffff169060200190929190803573ffffffffffffffffffffffffffffffffffffffff169060200190929190505050611c97565b6040518082815260200191505060405180910390f35b606060048054600181600116156101000203166002900480601f016020809104026020016040519081016040528092919081815260200182805460018160011615610100020316600290048015610abe5780601f10610a9357610100808354040283529160200191610abe565b820191906000526020600020905b815481529060010190602001808311610aa157829003601f168201915b5050505050905090565b6000610adc610ad5611d1e565b8484611d26565b6001905092915050565b600860009054906101000a900473ffffffffffffffffffffffffffffffffffffffff1673ffffffffffffffffffffffffffffffffffffffff163373ffffffffffffffffffffffffffffffffffffffff1614610b4057600080fd5b600073ffffffffffffffffffffffffffffffffffffffff168173ffffffffffffffffffffffffffffffffffffffff161415610b7a57600080fd5b600960009054906101000a900473ffffffffffffffffffffffffffffffffffffffff1673ffffffffffffffffffffffffffffffffffffffff168173ffffffffffffffffffffffffffffffffffffffff161415610bd557600080fd5b80600960006101000a81548173ffffffffffffffffffffffffffffffffffffffff021916908373ffffffffffffffffffffffffffffffffffffffff1602179055508073ffffffffffffffffffffffffffffffffffffffff16600960009054906101000a900473ffffffffffffffffffffffffffffffffffffffff1673ffffffffffffffffffffffffffffffffffffffff167fb532073b38c83145e3e5135377a08bf9aab55bc0fd7c1179cd4fb995d2a5159c60405160405180910390a350565b6000600254905090565b600a60009054906101000a900473ffffffffffffffffffffffffffffffffffffffff1673ffffffffffffffffffffffffffffffffffffffff163373ffffffffffffffffffffffffffffffffffffffff1614610cf957600080fd5b600073ffffffffffffffffffffffffffffffffffffffff168273ffffffffffffffffffffffffffffffffffffffff161415610d3357600080fd5b60008111610d4057600080fd5b6000610d4b83611abd565b90506000610d58846115aa565b905082821015610d6757600080fd5b82811015610d7457600080fd5b6000838303905080600b60008773ffffffffffffffffffffffffffffffffffffffff1673ffffffffffffffffffffffffffffffffffffffff168152602001908152602001600020819055508473ffffffffffffffffffffffffffffffffffffffff167f872768977511ded17070d838c821f2459b45f6dff642dc0cd79be17d6f9c12fc826040518082815260200191505060405180910390a2610e3a85600860009054906101000a900473ffffffffffffffffffffffffffffffffffffffff1686611f1d565b8473ffffffffffffffffffffffffffffffffffffffff167fbf7736aaf310cd7aa7cd231ba28117821189be3bc3d836e8afe017dfc629c665856040518082815260200191505060405180910390a25050505050565b6000610eeb600b60008673ffffffffffffffffffffffffffffffffffffffff1673ffffffffffffffffffffffffffffffffffffffff16815260200190815260200160002054610edd866115aa565b6121d390919063ffffffff16565b821115610ef757600080fd5b610f0284848461221d565b90509392505050565b6000600660009054906101000a900460ff16905090565b6000610fcb610f2f611d1e565b84610fc68560016000610f40611d1e565b73ffffffffffffffffffffffffffffffffffffffff1673ffffffffffffffffffffffffffffffffffffffff16815260200190815260200160002060008973ffffffffffffffffffffffffffffffffffffffff1673ffffffffffffffffffffffffffffffffffffffff168152602001908152602001600020546122f690919063ffffffff16565b611d26565b6001905092915050565b6000610fe7610fe2611d1e565b611c06565b61103c576040517f08c379a00000000000000000000000000000000000000000000000000000000081526004018080602001828103825260308152602001806129ad6030913960400191505060405180910390fd5b611046838361237e565b6001905092915050565b600960009054906101000a900473ffffffffffffffffffffffffffffffffffffffff1673ffffffffffffffffffffffffffffffffffffffff163373ffffffffffffffffffffffffffffffffffffffff16146110aa57600080fd5b600073ffffffffffffffffffffffffffffffffffffffff168173ffffffffffffffffffffffffffffffffffffffff1614156110e457600080fd5b600860009054906101000a900473ffffffffffffffffffffffffffffffffffffffff1673ffffffffffffffffffffffffffffffffffffffff168173ffffffffffffffffffffffffffffffffffffffff16141561113f57600080fd5b6000600860009054906101000a900473ffffffffffffffffffffffffffffffffffffffff16905081600860006101000a81548173ffffffffffffffffffffffffffffffffffffffff021916908373ffffffffffffffffffffffffffffffffffffffff1602179055508173ffffffffffffffffffffffffffffffffffffffff168173ffffffffffffffffffffffffffffffffffffffff167f16e2accad9173abff57b295b56993ec5d86b3cbf791fea02f02a6616463754ea60405160405180910390a361120d82336000611d26565b6000600b60008473ffffffffffffffffffffffffffffffffffffffff1673ffffffffffffffffffffffffffffffffffffffff16815260200190815260200160002081905550600061125d826115aa565b905061126a828483611f1d565b505050565b6000600960009054906101000a900473ffffffffffffffffffffffffffffffffffffffff1673ffffffffffffffffffffffffffffffffffffffff163373ffffffffffffffffffffffffffffffffffffffff16148061131a5750600860009054906101000a900473ffffffffffffffffffffffffffffffffffffffff1673ffffffffffffffffffffffffffffffffffffffff163373ffffffffffffffffffffffffffffffffffffffff16145b806113725750600a60009054906101000a900473ffffffffffffffffffffffffffffffffffffffff1673ffffffffffffffffffffffffffffffffffffffff163373ffffffffffffffffffffffffffffffffffffffff16145b61137b57600080fd5b600a60009054906101000a900473ffffffffffffffffffffffffffffffffffffffff16905090565b600960009054906101000a900473ffffffffffffffffffffffffffffffffffffffff1673ffffffffffffffffffffffffffffffffffffffff163373ffffffffffffffffffffffffffffffffffffffff16148061144c5750600860009054906101000a900473ffffffffffffffffffffffffffffffffffffffff1673ffffffffffffffffffffffffffffffffffffffff163373ffffffffffffffffffffffffffffffffffffffff16145b61145557600080fd5b600073ffffffffffffffffffffffffffffffffffffffff168173ffffffffffffffffffffffffffffffffffffffff16141561148f57600080fd5b600a60009054906101000a900473ffffffffffffffffffffffffffffffffffffffff1673ffffffffffffffffffffffffffffffffffffffff168173ffffffffffffffffffffffffffffffffffffffff1614156114ea57600080fd5b80600a60006101000a81548173ffffffffffffffffffffffffffffffffffffffff021916908373ffffffffffffffffffffffffffffffffffffffff1602179055508073ffffffffffffffffffffffffffffffffffffffff16600a60009054906101000a900473ffffffffffffffffffffffffffffffffffffffff1673ffffffffffffffffffffffffffffffffffffffff167f7e644d79422f17c01e4894b5f4f588d331ebfa28653d42ae832dc59e38c9798f60405160405180910390a350565b60008060008373ffffffffffffffffffffffffffffffffffffffff1673ffffffffffffffffffffffffffffffffffffffff168152602001908152602001600020549050919050565b600a60009054906101000a900473ffffffffffffffffffffffffffffffffffffffff1673ffffffffffffffffffffffffffffffffffffffff163373ffffffffffffffffffffffffffffffffffffffff161461164c57600080fd5b611654610c95565b81111561166057600080fd5b600073ffffffffffffffffffffffffffffffffffffffff168273ffffffffffffffffffffffffffffffffffffffff16141561169a57600080fd5b80600b60008473ffffffffffffffffffffffffffffffffffffffff1673ffffffffffffffffffffffffffffffffffffffff168152602001908152602001600020819055508173ffffffffffffffffffffffffffffffffffffffff167f872768977511ded17070d838c821f2459b45f6dff642dc0cd79be17d6f9c12fc826040518082815260200191505060405180910390a25050565b6000600960009054906101000a900473ffffffffffffffffffffffffffffffffffffffff1673ffffffffffffffffffffffffffffffffffffffff163373ffffffffffffffffffffffffffffffffffffffff1614806117db5750600860009054906101000a900473ffffffffffffffffffffffffffffffffffffffff1673ffffffffffffffffffffffffffffffffffffffff163373ffffffffffffffffffffffffffffffffffffffff16145b806118335750600a60009054906101000a900473ffffffffffffffffffffffffffffffffffffffff1673ffffffffffffffffffffffffffffffffffffffff163373ffffffffffffffffffffffffffffffffffffffff16145b61183c57600080fd5b600960009054906101000a900473ffffffffffffffffffffffffffffffffffffffff16905090565b6000600960009054906101000a900473ffffffffffffffffffffffffffffffffffffffff1673ffffffffffffffffffffffffffffffffffffffff163373ffffffffffffffffffffffffffffffffffffffff16148061190f5750600860009054906101000a900473ffffffffffffffffffffffffffffffffffffffff1673ffffffffffffffffffffffffffffffffffffffff163373ffffffffffffffffffffffffffffffffffffffff16145b806119675750600a60009054906101000a900473ffffffffffffffffffffffffffffffffffffffff1673ffffffffffffffffffffffffffffffffffffffff163373ffffffffffffffffffffffffffffffffffffffff16145b61197057600080fd5b600860009054906101000a900473ffffffffffffffffffffffffffffffffffffffff16905090565b606060058054600181600116156101000203166002900480601f016020809104026020016040519081016040528092919081815260200182805460018160011615610100020316600290048015611a305780601f10611a0557610100808354040283529160200191611a30565b820191906000526020600020905b815481529060010190602001808311611a1357829003601f168201915b5050505050905090565b611a4a611a45611d1e565b611c06565b611a9f576040517f08c379a00000000000000000000000000000000000000000000000000000000081526004018080602001828103825260308152602001806129ad6030913960400191505060405180910390fd5b611aa881612539565b50565b611abb611ab6611d1e565b612593565b565b6000600b60008373ffffffffffffffffffffffffffffffffffffffff1673ffffffffffffffffffffffffffffffffffffffff168152602001908152602001600020549050919050565b6000611bc9611b13611d1e565b84611bc485604051806060016040528060258152602001612a916025913960016000611b3d611d1e565b73ffffffffffffffffffffffffffffffffffffffff1673ffffffffffffffffffffffffffffffffffffffff16815260200190815260200160002060008a73ffffffffffffffffffffffffffffffffffffffff1673ffffffffffffffffffffffffffffffffffffffff168152602001908152602001600020546125ed9092919063ffffffff16565b611d26565b6001905092915050565b6000611bde33611abd565b82611be8336115aa565b031015611bf457600080fd5b611bfe83836126ad565b905092915050565b6000611c1c8260036126cb90919063ffffffff16565b9050919050565b6000611c2d610f0b565b60ff16600a0a905090565b6000600b60003373ffffffffffffffffffffffffffffffffffffffff1673ffffffffffffffffffffffffffffffffffffffff16815260200190815260200160002054905090565b600b6020528060005260406000206000915090505481565b6000600160008473ffffffffffffffffffffffffffffffffffffffff1673ffffffffffffffffffffffffffffffffffffffff16815260200190815260200160002060008373ffffffffffffffffffffffffffffffffffffffff1673ffffffffffffffffffffffffffffffffffffffff16815260200190815260200160002054905092915050565b600033905090565b600073ffffffffffffffffffffffffffffffffffffffff168373ffffffffffffffffffffffffffffffffffffffff161415611dac576040517f08c379a0000000000000000000000000000000000000000000000000000000008152600401808060200182810382526024815260200180612a6d6024913960400191505060405180910390fd5b600073ffffffffffffffffffffffffffffffffffffffff168273ffffffffffffffffffffffffffffffffffffffff161415611e32576040517f08c379a00000000000000000000000000000000000000000000000000000000081526004018080602001828103825260228152602001806129656022913960400191505060405180910390fd5b80600160008573ffffffffffffffffffffffffffffffffffffffff1673ffffffffffffffffffffffffffffffffffffffff16815260200190815260200160002060008473ffffffffffffffffffffffffffffffffffffffff1673ffffffffffffffffffffffffffffffffffffffff168152602001908152602001600020819055508173ffffffffffffffffffffffffffffffffffffffff168373ffffffffffffffffffffffffffffffffffffffff167f8c5be1e5ebec7d5bd14f71427d1e84f3dd0314c0f7b2291e5b200ac8c7c3b925836040518082815260200191505060405180910390a3505050565b600073ffffffffffffffffffffffffffffffffffffffff168373ffffffffffffffffffffffffffffffffffffffff161415611fa3576040517f08c379a0000000000000000000000000000000000000000000000000000000008152600401808060200182810382526025815260200180612a486025913960400191505060405180910390fd5b600073ffffffffffffffffffffffffffffffffffffffff168273ffffffffffffffffffffffffffffffffffffffff161415612029576040517f08c379a00000000000000000000000000000000000000000000000000000000081526004018080602001828103825260238152602001806129426023913960400191505060405180910390fd5b61209481604051806060016040528060268152602001612987602691396000808773ffffffffffffffffffffffffffffffffffffffff1673ffffffffffffffffffffffffffffffffffffffff168152602001908152602001600020546125ed9092919063ffffffff16565b6000808573ffffffffffffffffffffffffffffffffffffffff1673ffffffffffffffffffffffffffffffffffffffff16815260200190815260200160002081905550612127816000808573ffffffffffffffffffffffffffffffffffffffff1673ffffffffffffffffffffffffffffffffffffffff168152602001908152602001600020546122f690919063ffffffff16565b6000808473ffffffffffffffffffffffffffffffffffffffff1673ffffffffffffffffffffffffffffffffffffffff168152602001908152602001600020819055508173ffffffffffffffffffffffffffffffffffffffff168373ffffffffffffffffffffffffffffffffffffffff167fddf252ad1be2c89b69c2b068fc378daa952ba7f163c4a11628f55a4df523b3ef836040518082815260200191505060405180910390a3505050565b600061221583836040518060400160405280601e81526020017f536166654d6174683a207375627472616374696f6e206f766572666c6f7700008152506125ed565b905092915050565b600061222a848484611f1d565b6122eb84612236611d1e565b6122e6856040518060600160405280602881526020016129fe60289139600160008b73ffffffffffffffffffffffffffffffffffffffff1673ffffffffffffffffffffffffffffffffffffffff168152602001908152602001600020600061229c611d1e565b73ffffffffffffffffffffffffffffffffffffffff1673ffffffffffffffffffffffffffffffffffffffff168152602001908152602001600020546125ed9092919063ffffffff16565b611d26565b600190509392505050565b600080828401905083811015612374576040517f08c379a000000000000000000000000000000000000000000000000000000000815260040180806020018281038252601b8152602001807f536166654d6174683a206164646974696f6e206f766572666c6f77000000000081525060200191505060405180910390fd5b8091505092915050565b600073ffffffffffffffffffffffffffffffffffffffff168273ffffffffffffffffffffffffffffffffffffffff161415612421576040517f08c379a000000000000000000000000000000000000000000000000000000000815260040180806020018281038252601f8152602001807f45524332303a206d696e7420746f20746865207a65726f20616464726573730081525060200191505060405180910390fd5b612436816002546122f690919063ffffffff16565b60028190555061248d816000808573ffffffffffffffffffffffffffffffffffffffff1673ffffffffffffffffffffffffffffffffffffffff168152602001908152602001600020546122f690919063ffffffff16565b6000808473ffffffffffffffffffffffffffffffffffffffff1673ffffffffffffffffffffffffffffffffffffffff168152602001908152602001600020819055508173ffffffffffffffffffffffffffffffffffffffff16600073ffffffffffffffffffffffffffffffffffffffff167fddf252ad1be2c89b69c2b068fc378daa952ba7f163c4a11628f55a4df523b3ef836040518082815260200191505060405180910390a35050565b61254d8160036127a990919063ffffffff16565b8073ffffffffffffffffffffffffffffffffffffffff167f6ae172837ea30b801fbfcdd4108aa1d5bf8ff775444fd70256b44e6bf3dfc3f660405160405180910390a250565b6125a781600361288490919063ffffffff16565b8073ffffffffffffffffffffffffffffffffffffffff167fe94479a9f7e1952cc78f2d6baab678adc1b772d936c6583def489e524cb6669260405160405180910390a250565b600083831115829061269a576040517f08c379a00000000000000000000000000000000000000000000000000000000081526004018080602001828103825283818151815260200191508051906020019080838360005b8381101561265f578082015181840152602081019050612644565b50505050905090810190601f16801561268c5780820380516001836020036101000a031916815260200191505b509250505060405180910390fd5b5060008385039050809150509392505050565b60006126c16126ba611d1e565b8484611f1d565b6001905092915050565b60008073ffffffffffffffffffffffffffffffffffffffff168273ffffffffffffffffffffffffffffffffffffffff161415612752576040517f08c379a0000000000000000000000000000000000000000000000000000000008152600401808060200182810382526022815260200180612a266022913960400191505060405180910390fd5b8260000160008373ffffffffffffffffffffffffffffffffffffffff1673ffffffffffffffffffffffffffffffffffffffff16815260200190815260200160002060009054906101000a900460ff16905092915050565b6127b382826126cb565b15612826576040517f08c379a000000000000000000000000000000000000000000000000000000000815260040180806020018281038252601f8152602001807f526f6c65733a206163636f756e7420616c72656164792068617320726f6c650081525060200191505060405180910390fd5b60018260000160008373ffffffffffffffffffffffffffffffffffffffff1673ffffffffffffffffffffffffffffffffffffffff16815260200190815260200160002060006101000a81548160ff0219169083151502179055505050565b61288e82826126cb565b6128e3576040517f08c379a00000000000000000000000000000000000000000000000000000000081526004018080602001828103825260218152602001806129dd6021913960400191505060405180910390fd5b60008260000160008373ffffffffffffffffffffffffffffffffffffffff1673ffffffffffffffffffffffffffffffffffffffff16815260200190815260200160002060006101000a81548160ff021916908315150217905550505056fe45524332303a207472616e7366657220746f20746865207a65726f206164647265737345524332303a20617070726f766520746f20746865207a65726f206164647265737345524332303a207472616e7366657220616d6f756e7420657863656564732062616c616e63654d696e746572526f6c653a2063616c6c657220646f6573206e6f74206861766520746865204d696e74657220726f6c65526f6c65733a206163636f756e7420646f6573206e6f74206861766520726f6c6545524332303a207472616e7366657220616d6f756e74206578636565647320616c6c6f77616e6365526f6c65733a206163636f756e7420697320746865207a65726f206164647265737345524332303a207472616e736665722066726f6d20746865207a65726f206164647265737345524332303a20617070726f76652066726f6d20746865207a65726f206164647265737345524332303a2064656372656173656420616c6c6f77616e63652062656c6f77207a65726fa165627a7a723058207eb86cdc64aca09bc9bbb859b858a1ef7b015812266ae7d6cbbc2c6e9b6482960029526f6c65733a206163636f756e7420697320746865207a65726f2061646472657373",
  "source": "pragma solidity >=0.5.0;\n\nimport \"@openzeppelin/contracts/token/ERC20/ERC20Mintable.sol\";\nimport \"@openzeppelin/contracts/token/ERC20/ERC20Detailed.sol\";\n\n/**\n * @title Sdt contract \n */\ncontract Sdt is ERC20Mintable, ERC20Detailed {\n    uint noOfTokens = 1000000000; // 1,000,000,000 (1B)\n\n    // Address of sdtcoin vault\n    // The vault will have all the sdtcoin issued and the operation\n    // on its token will be protected by multi signing.\n    // In addtion, vault can recall(transfer back) the reserved amount\n    // from some address.\n    address internal vault;\n\n    // Address of sdtcoin owner\n    // The owner can change admin and vault address, but the change operation\n    // will be protected by multi signing.\n    address internal owner;\n\n    // Address of sdtcoin admin\n    // The admin can change reserve. The reserve is the amount of token\n    // assigned to some address but not permitted to use.\n    // Once the signers of the admin agree with removing the reserve,\n    // they can change the reserve to zero to permit the user to use all reserved\n    // amount. So in effect, reservation will postpone the use of some tokens\n    // being used until all stakeholders agree with giving permission to use that\n    // token to the token owner.\n    // All admin operation will be protected by multi signing.\n    address internal admin;\n\n    event OwnerChanged(address indexed previousOwner, address indexed newOwner);\n    event VaultChanged(address indexed previousVault, address indexed newVault);\n    event AdminChanged(address indexed previousAdmin, address indexed newAdmin);\n    event ReserveChanged(address indexed _address, uint amount);\n    event Recalled(address indexed from, uint amount);\n\n    // for debugging\n    event MsgAndValue(string message, bytes32 value);\n\n    /**\n     * @dev reserved number of tokens per each address\n     *\n     * To limit token transaction for some period by the admin or owner,\n     * each address' balance cannot become lower than this amount\n     *\n     */\n    mapping(address => uint) public reserves;\n\n    /**\n       * @dev modifier to limit access to the owner only\n       */\n    modifier onlyOwner() {\n        require(msg.sender == owner);\n        _;\n    }\n\n    /**\n       * @dev limit access to the vault only\n       */\n    modifier onlyVault() {\n        require(msg.sender == vault);\n        _;\n    }\n\n    /**\n       * @dev limit access to the admin only\n       */\n    modifier onlyAdmin() {\n        require(msg.sender == admin);\n        _;\n    }\n\n    /**\n       * @dev limit access to admin or vault\n       */\n    modifier onlyAdminOrVault() {\n        require(msg.sender == vault || msg.sender == admin);\n        _;\n    }\n\n    /**\n       * @dev limit access to owner or vault\n       */\n    modifier onlyOwnerOrVault() {\n        require(msg.sender == owner || msg.sender == vault);\n        _;\n    }\n\n    /**\n       * @dev limit access to owner or admin\n       */\n    modifier onlyAdminOrOwner() {\n        require(msg.sender == owner || msg.sender == admin);\n        _;\n    }\n\n    /**\n       * @dev limit access to owner or admin or vault\n       */\n    modifier onlyAdminOrOwnerOrVault() {\n        require(msg.sender == owner || msg.sender == vault || msg.sender == admin);\n        _;\n    }\n\n    /**\n     * @dev initialize QRC20(ERC20)\n     *\n     * all token will deposit into the vault\n     * later, the vault, owner will be multi sign contract to protect privileged operations\n     *\n     * @param _symbol token symbol\n     * @param _name   token name\n     * @param _owner  owner address\n     * @param _admin  admin address\n     * @param _vault  vault address\n     */\n    constructor (string memory _symbol, string memory _name, address _owner,\n        address _admin, address _vault) ERC20Detailed(_name, _symbol, 9)\n    public {\n        require(bytes(_symbol).length > 0);\n        require(bytes(_name).length > 0);\n\n        owner = _owner;\n        admin = _admin;\n        vault = _vault;\n\n        // int coins to the vault\n        _mint(vault, noOfTokens * (10 ** uint(decimals())));\n    }\n\n    /**\n     * @dev change the amount of reserved token\n     *    reserve should be less than or equal to the current token balance\n     *\n     *    Refer to the comment on the admin if you want to know more.\n     *\n     * @param _address the target address whose token will be frozen for future use\n     * @param _reserve  the amount of reserved token\n     *\n     */\n    function setReserve(address _address, uint _reserve) public onlyAdmin {\n        require(_reserve <= totalSupply());\n        require(_address != address(0));\n\n        reserves[_address] = _reserve;\n        emit ReserveChanged(_address, _reserve);\n    }\n\n    /**\n     * @dev transfer token from sender to other\n     *         the result balance should be greater than or equal to the reserved token amount\n     */\n    function transfer(address _to, uint256 _value) public returns (bool) {\n        // check the reserve\n        require(balanceOf(msg.sender) - _value >= reserveOf(msg.sender));\n        return super.transfer(_to, _value);\n    }\n\n    /**\n     * @dev change vault address\n     *    BEWARE! this withdraw all token from old vault and store it to the new vault\n     *            and new vault's allowed, reserve will be set to zero\n     * @param _newVault new vault address\n     */\n    function setVault(address _newVault) public onlyOwner {\n        require(_newVault != address(0));\n        require(_newVault != vault);\n\n        address _oldVault = vault;\n\n        // change vault address\n        vault = _newVault;\n        emit VaultChanged(_oldVault, _newVault);\n\n        // vault cannot have any allowed or reserved amount!!!\n        _approve(_newVault, msg.sender,  0);\n        reserves[_newVault] = 0;\n\n        // adjust balance\n        uint _value = balanceOf(_oldVault);\n        _transfer(_oldVault, _newVault, _value);\n    }\n\n    /**\n     * @dev change owner address\n     * @param _newOwner new owner address\n     */\n    function setOwner(address _newOwner) public onlyVault {\n        require(_newOwner != address(0));\n        require(_newOwner != owner);\n\n        owner = _newOwner;\n        emit OwnerChanged(owner, _newOwner);\n    }\n\n    /**\n     * @dev change admin address\n     * @param _newAdmin new admin address\n     */\n    function setAdmin(address _newAdmin) public onlyOwnerOrVault {\n        require(_newAdmin != address(0));\n        require(_newAdmin != admin);\n\n        admin = _newAdmin;\n\n        emit AdminChanged(admin, _newAdmin);\n    }\n\n    /**\n     * @dev transfer a part of reserved amount to the vault\n     *\n     *    Refer to the comment on the vault if you want to know more.\n     *\n     * @param _from the address from which the reserved token will be taken\n     * @param _amount the amount of token to be taken\n     */\n    function recall(address _from, uint _amount) public onlyAdmin {\n        require(_from != address(0));\n        require(_amount > 0);\n\n        uint currentReserve = reserveOf(_from);\n        uint currentBalance = balanceOf(_from);\n\n        require(currentReserve >= _amount);\n        require(currentBalance >= _amount);\n\n        uint newReserve = currentReserve - _amount;\n        reserves[_from] = newReserve;\n        emit ReserveChanged(_from, newReserve);\n\n        // transfer token _from to vault\n        _transfer(_from, vault, _amount);\n        emit Recalled(_from, _amount);\n    }\n\n    /**\n     * @dev Transfer tokens from one address to another\n     *\n     * The _from's SDT balance should be larger than the reserved amount(reserves[_from]) plus _value.\n     *\n     */\n    function transferFrom(address _from, address _to, uint256 _value) public returns (bool) {\n        require(_value <= balanceOf(_from).sub(reserves[_from]));\n        return super.transferFrom(_from, _to, _value);\n    }\n\n    function getOwner() public view onlyAdminOrOwnerOrVault returns (address) {\n        return owner;\n    }\n\n    function getVault() public view onlyAdminOrOwnerOrVault returns (address) {\n        return vault;\n    }\n\n    function getAdmin() public view onlyAdminOrOwnerOrVault returns (address) {\n        return admin;\n    }\n\n    function getOneSdt() public view returns (uint) {\n        return (10 ** uint(decimals()));\n    }\n\n    /**\n     * @dev get the amount of reserved token\n     */\n    function reserveOf(address _address) public view returns (uint _reserve) {\n        return reserves[_address];\n    }\n\n    /**\n     * @dev get the amount reserved token of the sender\n     */\n    function reserve() public view returns (uint _reserve) {\n        return reserves[msg.sender];\n    }\n}\n",
  "sourcePath": "/Users/hyunsokoh/Work/playcoin/sdtcontract/contracts/SdtCoin.sol",
  "compiler": {
    "name": "solc",
    "version": "0.5.8+commit.23d335f2.Emscripten.clang"
  },
  "schemaVersion": "3.0.16",
  "updatedAt": "2019-12-30T00:40:32.047Z",
  "devdoc": {
    "methods": {
      "allowance(address,address)": {
        "details": "See {IERC20-allowance}."
      },
      "approve(address,uint256)": {
        "details": "See {IERC20-approve}.     * Requirements:     * - `spender` cannot be the zero address."
      },
      "balanceOf(address)": {
        "details": "See {IERC20-balanceOf}."
      },
      "constructor": {
        "details": "initialize QRC20(ERC20)     * all token will deposit into the vault later, the vault, owner will be multi sign contract to protect privileged operations",
        "params": {
          "_admin": "admin address",
          "_name": "token name",
          "_owner": "owner address",
          "_symbol": "token symbol",
          "_vault": "vault address"
        }
      },
      "decimals()": {
        "details": "Returns the number of decimals used to get its user representation. For example, if `decimals` equals `2`, a balance of `505` tokens should be displayed to a user as `5,05` (`505 / 10 ** 2`).     * Tokens usually opt for a value of 18, imitating the relationship between Ether and Wei.     * NOTE: This information is only used for _display_ purposes: it in no way affects any of the arithmetic of the contract, including {IERC20-balanceOf} and {IERC20-transfer}."
      },
      "decreaseAllowance(address,uint256)": {
        "details": "Atomically decreases the allowance granted to `spender` by the caller.     * This is an alternative to {approve} that can be used as a mitigation for problems described in {IERC20-approve}.     * Emits an {Approval} event indicating the updated allowance.     * Requirements:     * - `spender` cannot be the zero address. - `spender` must have allowance for the caller of at least `subtractedValue`."
      },
      "increaseAllowance(address,uint256)": {
        "details": "Atomically increases the allowance granted to `spender` by the caller.     * This is an alternative to {approve} that can be used as a mitigation for problems described in {IERC20-approve}.     * Emits an {Approval} event indicating the updated allowance.     * Requirements:     * - `spender` cannot be the zero address."
      },
      "mint(address,uint256)": {
        "details": "See {ERC20-_mint}.     * Requirements:     * - the caller must have the {MinterRole}."
      },
      "name()": {
        "details": "Returns the name of the token."
      },
      "recall(address,uint256)": {
        "details": "transfer a part of reserved amount to the vault     *    Refer to the comment on the vault if you want to know more.",
        "params": {
          "_amount": "the amount of token to be taken",
          "_from": "the address from which the reserved token will be taken"
        }
      },
      "reserve()": {
        "details": "get the amount reserved token of the sender"
      },
      "reserveOf(address)": {
        "details": "get the amount of reserved token"
      },
      "setAdmin(address)": {
        "details": "change admin address",
        "params": {
          "_newAdmin": "new admin address"
        }
      },
      "setOwner(address)": {
        "details": "change owner address",
        "params": {
          "_newOwner": "new owner address"
        }
      },
      "setReserve(address,uint256)": {
        "details": "change the amount of reserved token   reserve should be less than or equal to the current token balance     *    Refer to the comment on the admin if you want to know more.",
        "params": {
          "_address": "the target address whose token will be frozen for future use",
          "_reserve": "the amount of reserved token     "
        }
      },
      "setVault(address)": {
        "details": "change vault address   BEWARE! this withdraw all token from old vault and store it to the new vault           and new vault's allowed, reserve will be set to zero",
        "params": {
          "_newVault": "new vault address"
        }
      },
      "symbol()": {
        "details": "Returns the symbol of the token, usually a shorter version of the name."
      },
      "totalSupply()": {
        "details": "See {IERC20-totalSupply}."
      },
      "transfer(address,uint256)": {
        "details": "transfer token from sender to other        the result balance should be greater than or equal to the reserved token amount"
      },
      "transferFrom(address,address,uint256)": {
        "details": "Transfer tokens from one address to another     * The _from's SDT balance should be larger than the reserved amount(reserves[_from]) plus _value.     "
      }
    },
    "title": "Sdt contract "
  },
  "userdoc": {
    "methods": {}
  }
}