{
  "contractName": "SdtCoin",
  "abi": [
    {
      "constant": true,
      "inputs": [],
      "name": "name",
      "outputs": [
        {
          "name": "",
          "type": "string"
        }
      ],
      "payable": false,
      "stateMutability": "view",
      "type": "function"
    },
    {
      "constant": false,
      "inputs": [
        {
          "name": "spender",
          "type": "address"
        },
        {
          "name": "amount",
          "type": "uint256"
        }
      ],
      "name": "approve",
      "outputs": [
        {
          "name": "",
          "type": "bool"
        }
      ],
      "payable": false,
      "stateMutability": "nonpayable",
      "type": "function"
    },
    {
      "constant": true,
      "inputs": [],
      "name": "totalSupply",
      "outputs": [
        {
          "name": "",
          "type": "uint256"
        }
      ],
      "payable": false,
      "stateMutability": "view",
      "type": "function"
    },
    {
      "constant": true,
      "inputs": [],
      "name": "decimals",
      "outputs": [
        {
          "name": "",
          "type": "uint8"
        }
      ],
      "payable": false,
      "stateMutability": "view",
      "type": "function"
    },
    {
      "constant": false,
      "inputs": [
        {
          "name": "spender",
          "type": "address"
        },
        {
          "name": "addedValue",
          "type": "uint256"
        }
      ],
      "name": "increaseAllowance",
      "outputs": [
        {
          "name": "",
          "type": "bool"
        }
      ],
      "payable": false,
      "stateMutability": "nonpayable",
      "type": "function"
    },
    {
      "constant": true,
      "inputs": [
        {
          "name": "account",
          "type": "address"
        }
      ],
      "name": "balanceOf",
      "outputs": [
        {
          "name": "",
          "type": "uint256"
        }
      ],
      "payable": false,
      "stateMutability": "view",
      "type": "function"
    },
    {
      "constant": true,
      "inputs": [],
      "name": "symbol",
      "outputs": [
        {
          "name": "",
          "type": "string"
        }
      ],
      "payable": false,
      "stateMutability": "view",
      "type": "function"
    },
    {
      "constant": false,
      "inputs": [
        {
          "name": "spender",
          "type": "address"
        },
        {
          "name": "subtractedValue",
          "type": "uint256"
        }
      ],
      "name": "decreaseAllowance",
      "outputs": [
        {
          "name": "",
          "type": "bool"
        }
      ],
      "payable": false,
      "stateMutability": "nonpayable",
      "type": "function"
    },
    {
      "constant": true,
      "inputs": [
        {
          "name": "",
          "type": "address"
        }
      ],
      "name": "reserves",
      "outputs": [
        {
          "name": "",
          "type": "uint256"
        }
      ],
      "payable": false,
      "stateMutability": "view",
      "type": "function"
    },
    {
      "constant": true,
      "inputs": [
        {
          "name": "owner",
          "type": "address"
        },
        {
          "name": "spender",
          "type": "address"
        }
      ],
      "name": "allowance",
      "outputs": [
        {
          "name": "",
          "type": "uint256"
        }
      ],
      "payable": false,
      "stateMutability": "view",
      "type": "function"
    },
    {
      "inputs": [
        {
          "name": "_symbol",
          "type": "string"
        },
        {
          "name": "_name",
          "type": "string"
        },
        {
          "name": "_owner",
          "type": "address"
        },
        {
          "name": "_admin",
          "type": "address"
        },
        {
          "name": "_vault",
          "type": "address"
        }
      ],
      "payable": false,
      "stateMutability": "nonpayable",
      "type": "constructor"
    },
    {
      "anonymous": false,
      "inputs": [
        {
          "indexed": true,
          "name": "previousOwner",
          "type": "address"
        },
        {
          "indexed": true,
          "name": "newOwner",
          "type": "address"
        }
      ],
      "name": "OwnerChanged",
      "type": "event"
    },
    {
      "anonymous": false,
      "inputs": [
        {
          "indexed": true,
          "name": "previousVault",
          "type": "address"
        },
        {
          "indexed": true,
          "name": "newVault",
          "type": "address"
        }
      ],
      "name": "VaultChanged",
      "type": "event"
    },
    {
      "anonymous": false,
      "inputs": [
        {
          "indexed": true,
          "name": "previousAdmin",
          "type": "address"
        },
        {
          "indexed": true,
          "name": "newAdmin",
          "type": "address"
        }
      ],
      "name": "AdminChanged",
      "type": "event"
    },
    {
      "anonymous": false,
      "inputs": [
        {
          "indexed": true,
          "name": "_address",
          "type": "address"
        },
        {
          "indexed": false,
          "name": "amount",
          "type": "uint256"
        }
      ],
      "name": "ReserveChanged",
      "type": "event"
    },
    {
      "anonymous": false,
      "inputs": [
        {
          "indexed": true,
          "name": "from",
          "type": "address"
        },
        {
          "indexed": false,
          "name": "amount",
          "type": "uint256"
        }
      ],
      "name": "Recalled",
      "type": "event"
    },
    {
      "anonymous": false,
      "inputs": [
        {
          "indexed": true,
          "name": "from",
          "type": "address"
        },
        {
          "indexed": true,
          "name": "to",
          "type": "address"
        },
        {
          "indexed": false,
          "name": "value",
          "type": "uint256"
        }
      ],
      "name": "Transfer",
      "type": "event"
    },
    {
      "anonymous": false,
      "inputs": [
        {
          "indexed": true,
          "name": "owner",
          "type": "address"
        },
        {
          "indexed": true,
          "name": "spender",
          "type": "address"
        },
        {
          "indexed": false,
          "name": "value",
          "type": "uint256"
        }
      ],
      "name": "Approval",
      "type": "event"
    },
    {
      "constant": false,
      "inputs": [
        {
          "name": "_address",
          "type": "address"
        },
        {
          "name": "_reserve",
          "type": "uint256"
        }
      ],
      "name": "setReserve",
      "outputs": [],
      "payable": false,
      "stateMutability": "nonpayable",
      "type": "function"
    },
    {
      "constant": false,
      "inputs": [
        {
          "name": "_to",
          "type": "address"
        },
        {
          "name": "_value",
          "type": "uint256"
        }
      ],
      "name": "transfer",
      "outputs": [
        {
          "name": "",
          "type": "bool"
        }
      ],
      "payable": false,
      "stateMutability": "nonpayable",
      "type": "function"
    },
    {
      "constant": false,
      "inputs": [
        {
          "name": "_newVault",
          "type": "address"
        }
      ],
      "name": "setVault",
      "outputs": [],
      "payable": false,
      "stateMutability": "nonpayable",
      "type": "function"
    },
    {
      "constant": false,
      "inputs": [
        {
          "name": "_newOwner",
          "type": "address"
        }
      ],
      "name": "setOwner",
      "outputs": [],
      "payable": false,
      "stateMutability": "nonpayable",
      "type": "function"
    },
    {
      "constant": false,
      "inputs": [
        {
          "name": "_newAdmin",
          "type": "address"
        }
      ],
      "name": "setAdmin",
      "outputs": [],
      "payable": false,
      "stateMutability": "nonpayable",
      "type": "function"
    },
    {
      "constant": false,
      "inputs": [
        {
          "name": "_from",
          "type": "address"
        },
        {
          "name": "_amount",
          "type": "uint256"
        }
      ],
      "name": "recall",
      "outputs": [],
      "payable": false,
      "stateMutability": "nonpayable",
      "type": "function"
    },
    {
      "constant": false,
      "inputs": [
        {
          "name": "_from",
          "type": "address"
        },
        {
          "name": "_to",
          "type": "address"
        },
        {
          "name": "_value",
          "type": "uint256"
        }
      ],
      "name": "transferFrom",
      "outputs": [
        {
          "name": "",
          "type": "bool"
        }
      ],
      "payable": false,
      "stateMutability": "nonpayable",
      "type": "function"
    },
    {
      "constant": true,
      "inputs": [],
      "name": "getOwner",
      "outputs": [
        {
          "name": "",
          "type": "address"
        }
      ],
      "payable": false,
      "stateMutability": "view",
      "type": "function"
    },
    {
      "constant": true,
      "inputs": [],
      "name": "getVault",
      "outputs": [
        {
          "name": "",
          "type": "address"
        }
      ],
      "payable": false,
      "stateMutability": "view",
      "type": "function"
    },
    {
      "constant": true,
      "inputs": [],
      "name": "getAdmin",
      "outputs": [
        {
          "name": "",
          "type": "address"
        }
      ],
      "payable": false,
      "stateMutability": "view",
      "type": "function"
    },
    {
      "constant": true,
      "inputs": [],
      "name": "getOneSdt",
      "outputs": [
        {
          "name": "",
          "type": "uint256"
        }
      ],
      "payable": false,
      "stateMutability": "view",
      "type": "function"
    },
    {
      "constant": true,
      "inputs": [
        {
          "name": "_address",
          "type": "address"
        }
      ],
      "name": "reserveOf",
      "outputs": [
        {
          "name": "_reserve",
          "type": "uint256"
        }
      ],
      "payable": false,
      "stateMutability": "view",
      "type": "function"
    },
    {
      "constant": true,
      "inputs": [],
      "name": "reserve",
      "outputs": [
        {
          "name": "_reserve",
          "type": "uint256"
        }
      ],
      "payable": false,
      "stateMutability": "view",
      "type": "function"
    }
  ],
  "bytecode": "0x6080604052633b9aca006006553480156200001957600080fd5b50604051620025d9380380620025d9833981018060405260a08110156200003f57600080fd5b8101908080516401000000008111156200005857600080fd5b828101905060208101848111156200006f57600080fd5b81518560018202830111640100000000821117156200008d57600080fd5b50509291906020018051640100000000811115620000aa57600080fd5b82810190506020810184811115620000c157600080fd5b8151856001820283011164010000000082111715620000df57600080fd5b50509291906020018051906020019092919080519060200190929190805190602001909291905050508385601282600090805190602001906200012492919062000507565b5081600190805190602001906200013d92919062000507565b5080600260006101000a81548160ff021916908360ff16021790555050505060008551116200016b57600080fd5b60008451116200017a57600080fd5b82600860006101000a81548173ffffffffffffffffffffffffffffffffffffffff021916908373ffffffffffffffffffffffffffffffffffffffff16021790555081600960006101000a81548173ffffffffffffffffffffffffffffffffffffffff021916908373ffffffffffffffffffffffffffffffffffffffff16021790555080600760006101000a81548173ffffffffffffffffffffffffffffffffffffffff021916908373ffffffffffffffffffffffffffffffffffffffff16021790555060006200024f6200029b60201b60201c565b60ff16600a0a6006540290506200028f600760009054906101000a900473ffffffffffffffffffffffffffffffffffffffff1682620002b260201b60201c565b505050505050620005b6565b6000600260009054906101000a900460ff16905090565b600073ffffffffffffffffffffffffffffffffffffffff168273ffffffffffffffffffffffffffffffffffffffff16141562000356576040517f08c379a000000000000000000000000000000000000000000000000000000000815260040180806020018281038252601f8152602001807f45524332303a206d696e7420746f20746865207a65726f20616464726573730081525060200191505060405180910390fd5b62000372816005546200047e60201b62001d801790919060201c565b600581905550620003d181600360008573ffffffffffffffffffffffffffffffffffffffff1673ffffffffffffffffffffffffffffffffffffffff168152602001908152602001600020546200047e60201b62001d801790919060201c565b600360008473ffffffffffffffffffffffffffffffffffffffff1673ffffffffffffffffffffffffffffffffffffffff168152602001908152602001600020819055508173ffffffffffffffffffffffffffffffffffffffff16600073ffffffffffffffffffffffffffffffffffffffff167fddf252ad1be2c89b69c2b068fc378daa952ba7f163c4a11628f55a4df523b3ef836040518082815260200191505060405180910390a35050565b600080828401905083811015620004fd576040517f08c379a000000000000000000000000000000000000000000000000000000000815260040180806020018281038252601b8152602001807f536166654d6174683a206164646974696f6e206f766572666c6f77000000000081525060200191505060405180910390fd5b8091505092915050565b828054600181600116156101000203166002900490600052602060002090601f016020900481019282601f106200054a57805160ff19168380011785556200057b565b828001600101855582156200057b579182015b828111156200057a5782518255916020019190600101906200055d565b5b5090506200058a91906200058e565b5090565b620005b391905b80821115620005af57600081600090555060010162000595565b5090565b90565b61201380620005c66000396000f3fe608060405234801561001057600080fd5b506004361061014d5760003560e01c806370a08231116100c3578063a457c2d71161007c578063a457c2d7146106e2578063a9059cbb14610748578063b83c6da0146107ae578063cd3293de146107cc578063d66bd524146107ea578063dd62ed3e146108425761014d565b806370a08231146104cd57806378250b6314610525578063893d20e8146105735780638d928af8146105bd57806395d89b41146106075780639fa77b201461068a5761014d565b806323b872dd1161011557806323b872dd146102eb578063313ce5671461037157806339509351146103955780636817031b146103fb5780636e9960c31461043f578063704b6c02146104895761014d565b806306fdde0314610152578063095ea7b3146101d557806313af40351461023b57806318160ddd1461027f5780631f035c7a1461029d575b600080fd5b61015a6108ba565b6040518080602001828103825283818151815260200191508051906020019080838360005b8381101561019a57808201518184015260208101905061017f565b50505050905090810190601f1680156101c75780820380516001836020036101000a031916815260200191505b509250505060405180910390f35b610221600480360360408110156101eb57600080fd5b81019080803573ffffffffffffffffffffffffffffffffffffffff1690602001909291908035906020019092919050505061095c565b604051808215151515815260200191505060405180910390f35b61027d6004803603602081101561025157600080fd5b81019080803573ffffffffffffffffffffffffffffffffffffffff16906020019092919050505061097a565b005b610287610b29565b6040518082815260200191505060405180910390f35b6102e9600480360360408110156102b357600080fd5b81019080803573ffffffffffffffffffffffffffffffffffffffff16906020019092919080359060200190929190505050610b33565b005b6103576004803603606081101561030157600080fd5b81019080803573ffffffffffffffffffffffffffffffffffffffff169060200190929190803573ffffffffffffffffffffffffffffffffffffffff16906020019092919080359060200190929190505050610d33565b604051808215151515815260200191505060405180910390f35b610379610e0a565b604051808260ff1660ff16815260200191505060405180910390f35b6103e1600480360360408110156103ab57600080fd5b81019080803573ffffffffffffffffffffffffffffffffffffffff16906020019092919080359060200190929190505050610e21565b604051808215151515815260200191505060405180910390f35b61043d6004803603602081101561041157600080fd5b81019080803573ffffffffffffffffffffffffffffffffffffffff169060200190929190505050610ed4565b005b6104476110a2565b604051808273ffffffffffffffffffffffffffffffffffffffff1673ffffffffffffffffffffffffffffffffffffffff16815260200191505060405180910390f35b6104cb6004803603602081101561049f57600080fd5b81019080803573ffffffffffffffffffffffffffffffffffffffff1690602001909291905050506110cc565b005b61050f600480360360208110156104e357600080fd5b81019080803573ffffffffffffffffffffffffffffffffffffffff1690602001909291905050506112d3565b6040518082815260200191505060405180910390f35b6105716004803603604081101561053b57600080fd5b81019080803573ffffffffffffffffffffffffffffffffffffffff1690602001909291908035906020019092919050505061131c565b005b61057b61145a565b604051808273ffffffffffffffffffffffffffffffffffffffff1673ffffffffffffffffffffffffffffffffffffffff16815260200191505060405180910390f35b6105c5611484565b604051808273ffffffffffffffffffffffffffffffffffffffff1673ffffffffffffffffffffffffffffffffffffffff16815260200191505060405180910390f35b61060f6114ae565b6040518080602001828103825283818151815260200191508051906020019080838360005b8381101561064f578082015181840152602081019050610634565b50505050905090810190601f16801561067c5780820380516001836020036101000a031916815260200191505b509250505060405180910390f35b6106cc600480360360208110156106a057600080fd5b81019080803573ffffffffffffffffffffffffffffffffffffffff169060200190929190505050611550565b6040518082815260200191505060405180910390f35b61072e600480360360408110156106f857600080fd5b81019080803573ffffffffffffffffffffffffffffffffffffffff16906020019092919080359060200190929190505050611599565b604051808215151515815260200191505060405180910390f35b6107946004803603604081101561075e57600080fd5b81019080803573ffffffffffffffffffffffffffffffffffffffff16906020019092919080359060200190929190505050611666565b604051808215151515815260200191505060405180910390f35b6107b66116a9565b6040518082815260200191505060405180910390f35b6107d46116be565b6040518082815260200191505060405180910390f35b61082c6004803603602081101561080057600080fd5b81019080803573ffffffffffffffffffffffffffffffffffffffff169060200190929190505050611705565b6040518082815260200191505060405180910390f35b6108a46004803603604081101561085857600080fd5b81019080803573ffffffffffffffffffffffffffffffffffffffff169060200190929190803573ffffffffffffffffffffffffffffffffffffffff16906020019092919050505061171d565b6040518082815260200191505060405180910390f35b606060008054600181600116156101000203166002900480601f0160208091040260200160405190810160405280929190818152602001828054600181600116156101000203166002900480156109525780601f1061092757610100808354040283529160200191610952565b820191906000526020600020905b81548152906001019060200180831161093557829003601f168201915b5050505050905090565b60006109706109696117a4565b84846117ac565b6001905092915050565b600760009054906101000a900473ffffffffffffffffffffffffffffffffffffffff1673ffffffffffffffffffffffffffffffffffffffff163373ffffffffffffffffffffffffffffffffffffffff16146109d457600080fd5b600073ffffffffffffffffffffffffffffffffffffffff168173ffffffffffffffffffffffffffffffffffffffff161415610a0e57600080fd5b600860009054906101000a900473ffffffffffffffffffffffffffffffffffffffff1673ffffffffffffffffffffffffffffffffffffffff168173ffffffffffffffffffffffffffffffffffffffff161415610a6957600080fd5b8073ffffffffffffffffffffffffffffffffffffffff16600860009054906101000a900473ffffffffffffffffffffffffffffffffffffffff1673ffffffffffffffffffffffffffffffffffffffff167fb532073b38c83145e3e5135377a08bf9aab55bc0fd7c1179cd4fb995d2a5159c60405160405180910390a380600860006101000a81548173ffffffffffffffffffffffffffffffffffffffff021916908373ffffffffffffffffffffffffffffffffffffffff16021790555050565b6000600554905090565b600960009054906101000a900473ffffffffffffffffffffffffffffffffffffffff1673ffffffffffffffffffffffffffffffffffffffff163373ffffffffffffffffffffffffffffffffffffffff1614610b8d57600080fd5b600073ffffffffffffffffffffffffffffffffffffffff168273ffffffffffffffffffffffffffffffffffffffff161415610bc757600080fd5b60008111610bd457600080fd5b6000610bdf83611550565b90506000610bec846112d3565b905082821015610bfb57600080fd5b82811015610c0857600080fd5b6000610c1d84846119a390919063ffffffff16565b905080600a60008773ffffffffffffffffffffffffffffffffffffffff1673ffffffffffffffffffffffffffffffffffffffff168152602001908152602001600020819055508473ffffffffffffffffffffffffffffffffffffffff167f872768977511ded17070d838c821f2459b45f6dff642dc0cd79be17d6f9c12fc826040518082815260200191505060405180910390a2610cde85600760009054906101000a900473ffffffffffffffffffffffffffffffffffffffff16866119ed565b8473ffffffffffffffffffffffffffffffffffffffff167fbf7736aaf310cd7aa7cd231ba28117821189be3bc3d836e8afe017dfc629c665856040518082815260200191505060405180910390a25050505050565b6000600760009054906101000a900473ffffffffffffffffffffffffffffffffffffffff1673ffffffffffffffffffffffffffffffffffffffff168473ffffffffffffffffffffffffffffffffffffffff161415610d9057600080fd5b610dea600a60008673ffffffffffffffffffffffffffffffffffffffff1673ffffffffffffffffffffffffffffffffffffffff16815260200190815260200160002054610ddc866112d3565b6119a390919063ffffffff16565b821115610df657600080fd5b610e01848484611ca7565b90509392505050565b6000600260009054906101000a900460ff16905090565b6000610eca610e2e6117a4565b84610ec58560046000610e3f6117a4565b73ffffffffffffffffffffffffffffffffffffffff1673ffffffffffffffffffffffffffffffffffffffff16815260200190815260200160002060008973ffffffffffffffffffffffffffffffffffffffff1673ffffffffffffffffffffffffffffffffffffffff16815260200190815260200160002054611d8090919063ffffffff16565b6117ac565b6001905092915050565b600860009054906101000a900473ffffffffffffffffffffffffffffffffffffffff1673ffffffffffffffffffffffffffffffffffffffff163373ffffffffffffffffffffffffffffffffffffffff1614610f2e57600080fd5b600073ffffffffffffffffffffffffffffffffffffffff168173ffffffffffffffffffffffffffffffffffffffff161415610f6857600080fd5b600760009054906101000a900473ffffffffffffffffffffffffffffffffffffffff1673ffffffffffffffffffffffffffffffffffffffff168173ffffffffffffffffffffffffffffffffffffffff161415610fc357600080fd5b6000600760009054906101000a900473ffffffffffffffffffffffffffffffffffffffff16905081600760006101000a81548173ffffffffffffffffffffffffffffffffffffffff021916908373ffffffffffffffffffffffffffffffffffffffff1602179055508173ffffffffffffffffffffffffffffffffffffffff168173ffffffffffffffffffffffffffffffffffffffff167f16e2accad9173abff57b295b56993ec5d86b3cbf791fea02f02a6616463754ea60405160405180910390a36000611090826112d3565b905061109d8284836119ed565b505050565b6000600960009054906101000a900473ffffffffffffffffffffffffffffffffffffffff16905090565b600860009054906101000a900473ffffffffffffffffffffffffffffffffffffffff1673ffffffffffffffffffffffffffffffffffffffff163373ffffffffffffffffffffffffffffffffffffffff1614806111755750600760009054906101000a900473ffffffffffffffffffffffffffffffffffffffff1673ffffffffffffffffffffffffffffffffffffffff163373ffffffffffffffffffffffffffffffffffffffff16145b61117e57600080fd5b600073ffffffffffffffffffffffffffffffffffffffff168173ffffffffffffffffffffffffffffffffffffffff1614156111b857600080fd5b600960009054906101000a900473ffffffffffffffffffffffffffffffffffffffff1673ffffffffffffffffffffffffffffffffffffffff168173ffffffffffffffffffffffffffffffffffffffff16141561121357600080fd5b8073ffffffffffffffffffffffffffffffffffffffff16600960009054906101000a900473ffffffffffffffffffffffffffffffffffffffff1673ffffffffffffffffffffffffffffffffffffffff167f7e644d79422f17c01e4894b5f4f588d331ebfa28653d42ae832dc59e38c9798f60405160405180910390a380600960006101000a81548173ffffffffffffffffffffffffffffffffffffffff021916908373ffffffffffffffffffffffffffffffffffffffff16021790555050565b6000600360008373ffffffffffffffffffffffffffffffffffffffff1673ffffffffffffffffffffffffffffffffffffffff168152602001908152602001600020549050919050565b600960009054906101000a900473ffffffffffffffffffffffffffffffffffffffff1673ffffffffffffffffffffffffffffffffffffffff163373ffffffffffffffffffffffffffffffffffffffff161461137657600080fd5b61137e610b29565b81111561138a57600080fd5b600073ffffffffffffffffffffffffffffffffffffffff168273ffffffffffffffffffffffffffffffffffffffff1614156113c457600080fd5b80600a60008473ffffffffffffffffffffffffffffffffffffffff1673ffffffffffffffffffffffffffffffffffffffff168152602001908152602001600020819055508173ffffffffffffffffffffffffffffffffffffffff167f872768977511ded17070d838c821f2459b45f6dff642dc0cd79be17d6f9c12fc826040518082815260200191505060405180910390a25050565b6000600860009054906101000a900473ffffffffffffffffffffffffffffffffffffffff16905090565b6000600760009054906101000a900473ffffffffffffffffffffffffffffffffffffffff16905090565b606060018054600181600116156101000203166002900480601f0160208091040260200160405190810160405280929190818152602001828054600181600116156101000203166002900480156115465780601f1061151b57610100808354040283529160200191611546565b820191906000526020600020905b81548152906001019060200180831161152957829003601f168201915b5050505050905090565b6000600a60008373ffffffffffffffffffffffffffffffffffffffff1673ffffffffffffffffffffffffffffffffffffffff168152602001908152602001600020549050919050565b600061165c6115a66117a4565b8461165785604051806060016040528060258152602001611fc360259139600460006115d06117a4565b73ffffffffffffffffffffffffffffffffffffffff1673ffffffffffffffffffffffffffffffffffffffff16815260200190815260200160002060008a73ffffffffffffffffffffffffffffffffffffffff1673ffffffffffffffffffffffffffffffffffffffff16815260200190815260200160002054611e089092919063ffffffff16565b6117ac565b6001905092915050565b600061167133611550565b61168c8361167e336112d3565b6119a390919063ffffffff16565b101561169757600080fd5b6116a18383611ec8565b905092915050565b60006116b3610e0a565b60ff16600a0a905090565b6000600a60003373ffffffffffffffffffffffffffffffffffffffff1673ffffffffffffffffffffffffffffffffffffffff16815260200190815260200160002054905090565b600a6020528060005260406000206000915090505481565b6000600460008473ffffffffffffffffffffffffffffffffffffffff1673ffffffffffffffffffffffffffffffffffffffff16815260200190815260200160002060008373ffffffffffffffffffffffffffffffffffffffff1673ffffffffffffffffffffffffffffffffffffffff16815260200190815260200160002054905092915050565b600033905090565b600073ffffffffffffffffffffffffffffffffffffffff168373ffffffffffffffffffffffffffffffffffffffff161415611832576040517f08c379a0000000000000000000000000000000000000000000000000000000008152600401808060200182810382526024815260200180611f9f6024913960400191505060405180910390fd5b600073ffffffffffffffffffffffffffffffffffffffff168273ffffffffffffffffffffffffffffffffffffffff1614156118b8576040517f08c379a0000000000000000000000000000000000000000000000000000000008152600401808060200182810382526022815260200180611f0a6022913960400191505060405180910390fd5b80600460008573ffffffffffffffffffffffffffffffffffffffff1673ffffffffffffffffffffffffffffffffffffffff16815260200190815260200160002060008473ffffffffffffffffffffffffffffffffffffffff1673ffffffffffffffffffffffffffffffffffffffff168152602001908152602001600020819055508173ffffffffffffffffffffffffffffffffffffffff168373ffffffffffffffffffffffffffffffffffffffff167f8c5be1e5ebec7d5bd14f71427d1e84f3dd0314c0f7b2291e5b200ac8c7c3b925836040518082815260200191505060405180910390a3505050565b60006119e583836040518060400160405280601e81526020017f536166654d6174683a207375627472616374696f6e206f766572666c6f770000815250611e08565b905092915050565b600073ffffffffffffffffffffffffffffffffffffffff168373ffffffffffffffffffffffffffffffffffffffff161415611a73576040517f08c379a0000000000000000000000000000000000000000000000000000000008152600401808060200182810382526025815260200180611f7a6025913960400191505060405180910390fd5b600073ffffffffffffffffffffffffffffffffffffffff168273ffffffffffffffffffffffffffffffffffffffff161415611af9576040517f08c379a0000000000000000000000000000000000000000000000000000000008152600401808060200182810382526023815260200180611ee76023913960400191505060405180910390fd5b611b6581604051806060016040528060268152602001611f2c60269139600360008773ffffffffffffffffffffffffffffffffffffffff1673ffffffffffffffffffffffffffffffffffffffff16815260200190815260200160002054611e089092919063ffffffff16565b600360008573ffffffffffffffffffffffffffffffffffffffff1673ffffffffffffffffffffffffffffffffffffffff16815260200190815260200160002081905550611bfa81600360008573ffffffffffffffffffffffffffffffffffffffff1673ffffffffffffffffffffffffffffffffffffffff16815260200190815260200160002054611d8090919063ffffffff16565b600360008473ffffffffffffffffffffffffffffffffffffffff1673ffffffffffffffffffffffffffffffffffffffff168152602001908152602001600020819055508173ffffffffffffffffffffffffffffffffffffffff168373ffffffffffffffffffffffffffffffffffffffff167fddf252ad1be2c89b69c2b068fc378daa952ba7f163c4a11628f55a4df523b3ef836040518082815260200191505060405180910390a3505050565b6000611cb48484846119ed565b611d7584611cc06117a4565b611d7085604051806060016040528060288152602001611f5260289139600460008b73ffffffffffffffffffffffffffffffffffffffff1673ffffffffffffffffffffffffffffffffffffffff1681526020019081526020016000206000611d266117a4565b73ffffffffffffffffffffffffffffffffffffffff1673ffffffffffffffffffffffffffffffffffffffff16815260200190815260200160002054611e089092919063ffffffff16565b6117ac565b600190509392505050565b600080828401905083811015611dfe576040517f08c379a000000000000000000000000000000000000000000000000000000000815260040180806020018281038252601b8152602001807f536166654d6174683a206164646974696f6e206f766572666c6f77000000000081525060200191505060405180910390fd5b8091505092915050565b6000838311158290611eb5576040517f08c379a00000000000000000000000000000000000000000000000000000000081526004018080602001828103825283818151815260200191508051906020019080838360005b83811015611e7a578082015181840152602081019050611e5f565b50505050905090810190601f168015611ea75780820380516001836020036101000a031916815260200191505b509250505060405180910390fd5b5060008385039050809150509392505050565b6000611edc611ed56117a4565b84846119ed565b600190509291505056fe45524332303a207472616e7366657220746f20746865207a65726f206164647265737345524332303a20617070726f766520746f20746865207a65726f206164647265737345524332303a207472616e7366657220616d6f756e7420657863656564732062616c616e636545524332303a207472616e7366657220616d6f756e74206578636565647320616c6c6f77616e636545524332303a207472616e736665722066726f6d20746865207a65726f206164647265737345524332303a20617070726f76652066726f6d20746865207a65726f206164647265737345524332303a2064656372656173656420616c6c6f77616e63652062656c6f77207a65726fa165627a7a7230582009eef6db6656a9e27e4f2337f4d0e2db57eae75f5ea19b0be2da254b1bc088f40029",
  "source": "pragma solidity >=0.5.0; \nimport \"@openzeppelin/contracts/token/ERC20/ERC20Detailed.sol\";\nimport \"@openzeppelin/contracts/token/ERC20/ERC20.sol\";\n\n/**\n * @title Sdt contract \n */\ncontract SdtCoin is ERC20Detailed, ERC20 {\n    uint noOfTokens = 1000000000; // 1,000,000,000 (1B)\n\n    // Address of sdtcoin vault\n    // The vault will have all the sdtcoin issued at first.\n    // In addtion, recalled(transfer back) token will be transferred to\n    // the vault.\n    address internal vault;\n\n    // Address of sdtcoin owner\n    // The owner can change admin and vault address.\n    address internal owner;\n\n    // Address of sdtcoin admin\n    // The admin can change reserve. The reserve is the amount of token\n    // assigned to some address but not permitted to use.\n    // Once the admin agree with removing the reserve,\n    // they can change the reserve to zero to permit the user to use all reserved\n    // amount. So in effect, reservation will postpone the use of some tokens\n    // being used until the admin give permission to the token owner.\n    address internal admin;\n\n    event OwnerChanged(address indexed previousOwner, address indexed newOwner);\n    event VaultChanged(address indexed previousVault, address indexed newVault);\n    event AdminChanged(address indexed previousAdmin, address indexed newAdmin);\n    event ReserveChanged(address indexed _address, uint amount);\n    event Recalled(address indexed from, uint amount);\n\n    /**\n     * @dev reserved number of tokens per each address\n     *\n     * To limit token transaction for some period by the admin,\n     * each address' balance cannot become lower than this amount\n     *\n     */\n    mapping(address => uint) public reserves;\n\n    /**\n       * @dev modifier to limit access to the owner only\n       */\n    modifier onlyOwner() {\n        require(msg.sender == owner);\n        _;\n    }\n\n    /**\n       * @dev limit access to the vault only\n       */\n    modifier onlyVault() {\n        require(msg.sender == vault);\n        _;\n    }\n\n    /**\n       * @dev limit access to the admin only\n       */\n    modifier onlyAdmin() {\n        require(msg.sender == admin);\n        _;\n    }\n\n    /**\n       * @dev limit access to owner or vault\n       */\n    modifier onlyOwnerOrVault() {\n        require(msg.sender == owner || msg.sender == vault);\n        _;\n    }\n\n    /**\n       * @dev limit access to owner or admin or vault\n       */\n    modifier onlyAdminOrOwnerOrVault() {\n        require(msg.sender == owner || msg.sender == vault || msg.sender == admin);\n        _;\n    }\n\n    /**\n     * @dev initialize QRC20(ERC20)\n     *\n     * all token will deposit into the vault\n     * later, the vault, owner will be multi sign contract to protect privileged operations\n     *\n     * @param _symbol token symbol\n     * @param _name   token name\n     * @param _owner  owner address\n     * @param _admin  admin address\n     * @param _vault  vault address\n     */\n    constructor (string memory _symbol, string memory _name, address _owner,\n        address _admin, address _vault) ERC20Detailed(_name, _symbol, 18)\n    public {\n        require(bytes(_symbol).length > 0);\n        require(bytes(_name).length > 0);\n\n        owner = _owner;\n        admin = _admin;\n        vault = _vault;\n\n        // initially all coins to the vault\n        uint totalSupply_ = noOfTokens * (10 ** uint(decimals()));\n        _mint(vault, totalSupply_);\n    }\n\n    /**\n     * @dev change the amount of reserved token\n     *    reserve should be less than or equal to the current token balance\n     *\n     *    Refer to the comment on the admin if you want to know more.\n     *\n     * @param _address the target address whose token will be frozen for future use\n     * @param _reserve  the amount of reserved token\n     *\n     */\n    function setReserve(address _address, uint _reserve) public onlyAdmin {\n        require(_reserve <= totalSupply());\n        require(_address != address(0));\n\n        reserves[_address] = _reserve;\n        emit ReserveChanged(_address, _reserve);\n    }\n\n    /**\n     * @dev transfer token from sender to other\n     *         the result balance should be greater than or equal to the reserved token amount\n     */\n    function transfer(address _to, uint256 _value) public returns (bool) {\n        // check the reserve\n        require(balanceOf(msg.sender).sub(_value) >= reserveOf(msg.sender));\n        return super.transfer(_to, _value);\n    }\n\n    /**\n     * @dev change vault address\n     *    BEWARE! this withdraw all token from old vault and store it to the new vault\n     *            and new vault's allowed, reserve will be set to zero\n     * @param _newVault new vault address\n     */\n    function setVault(address _newVault) public onlyOwner {\n        require(_newVault != address(0));\n        require(_newVault != vault);\n\n        address _oldVault = vault;\n\n        // change vault address\n        vault = _newVault;\n        emit VaultChanged(_oldVault, _newVault);\n\n        // adjust balance\n        uint _value = balanceOf(_oldVault);\n        _transfer(_oldVault, _newVault, _value);\n    }\n\n    /**\n     * @dev change owner address\n     * @param _newOwner new owner address\n     */\n    function setOwner(address _newOwner) public onlyVault {\n        require(_newOwner != address(0));\n        require(_newOwner != owner);\n\n        emit OwnerChanged(owner, _newOwner);\n        owner = _newOwner;\n    }\n\n    /**\n     * @dev change admin address\n     * @param _newAdmin new admin address\n     */\n    function setAdmin(address _newAdmin) public onlyOwnerOrVault {\n        require(_newAdmin != address(0));\n        require(_newAdmin != admin);\n\n        emit AdminChanged(admin, _newAdmin);\n        admin = _newAdmin;\n    }\n\n    /**\n     * @dev transfer a part of reserved amount to the vault\n     *\n     *    Refer to the comment on the vault if you want to know more.\n     *\n     * @param _from the address from which the reserved token will be taken\n     * @param _amount the amount of token to be taken\n     */\n    function recall(address _from, uint _amount) public onlyAdmin {\n        require(_from != address(0));\n        require(_amount > 0);\n\n        uint currentReserve = reserveOf(_from);\n        uint currentBalance = balanceOf(_from);\n\n        require(currentReserve >= _amount);\n        require(currentBalance >= _amount);\n\n        uint newReserve = currentReserve.sub(_amount);\n        reserves[_from] = newReserve;\n        emit ReserveChanged(_from, newReserve);\n\n        // transfer token _from to vault\n        _transfer(_from, vault, _amount);\n        emit Recalled(_from, _amount);\n    }\n\n    /**\n     * @dev Transfer tokens from one address to another\n     *\n     * The _from's SDT balance should be larger than the reserved amount(reserves[_from]) plus _value.\n     *  NOTE: No one can send vault's token using transferFrom\n     *\n     */\n    function transferFrom(address _from, address _to, uint256 _value) public returns (bool) {\n        require(_from != vault);\n        require(_value <= balanceOf(_from).sub(reserves[_from]));\n        return super.transferFrom(_from, _to, _value);\n    }\n\n    function getOwner() public view returns (address) {\n        return owner;\n    }\n\n    function getVault() public view returns (address) {\n        return vault;\n    }\n\n    function getAdmin() public view returns (address) {\n        return admin;\n    }\n\n    function getOneSdt() public view returns (uint) {\n        return (10 ** uint(decimals()));\n    }\n\n    /**\n     * @dev get the amount of reserved token\n     */\n    function reserveOf(address _address) public view returns (uint _reserve) {\n        return reserves[_address];\n    }\n\n    /**\n     * @dev get the amount reserved token of the sender\n     */\n    function reserve() public view returns (uint _reserve) {\n        return reserves[msg.sender];\n    }\n}\n",
  "sourcePath": "/Users/hyunsokoh/Work/playcoin/sdtcontract/contracts/SdtCoin.sol",
  "compiler": {
    "name": "solc",
    "version": "0.5.8+commit.23d335f2.Emscripten.clang"
  },
  "schemaVersion": "3.0.16",
  "updatedAt": "2020-01-15T11:28:22.675Z",
  "devdoc": {
    "methods": {
      "allowance(address,address)": {
        "details": "See {IERC20-allowance}."
      },
      "approve(address,uint256)": {
        "details": "See {IERC20-approve}.     * Requirements:     * - `spender` cannot be the zero address."
      },
      "balanceOf(address)": {
        "details": "See {IERC20-balanceOf}."
      },
      "constructor": {
        "details": "initialize QRC20(ERC20)     * all token will deposit into the vault later, the vault, owner will be multi sign contract to protect privileged operations",
        "params": {
          "_admin": "admin address",
          "_name": "token name",
          "_owner": "owner address",
          "_symbol": "token symbol",
          "_vault": "vault address"
        }
      },
      "decimals()": {
        "details": "Returns the number of decimals used to get its user representation. For example, if `decimals` equals `2`, a balance of `505` tokens should be displayed to a user as `5,05` (`505 / 10 ** 2`).     * Tokens usually opt for a value of 18, imitating the relationship between Ether and Wei.     * NOTE: This information is only used for _display_ purposes: it in no way affects any of the arithmetic of the contract, including {IERC20-balanceOf} and {IERC20-transfer}."
      },
      "decreaseAllowance(address,uint256)": {
        "details": "Atomically decreases the allowance granted to `spender` by the caller.     * This is an alternative to {approve} that can be used as a mitigation for problems described in {IERC20-approve}.     * Emits an {Approval} event indicating the updated allowance.     * Requirements:     * - `spender` cannot be the zero address. - `spender` must have allowance for the caller of at least `subtractedValue`."
      },
      "increaseAllowance(address,uint256)": {
        "details": "Atomically increases the allowance granted to `spender` by the caller.     * This is an alternative to {approve} that can be used as a mitigation for problems described in {IERC20-approve}.     * Emits an {Approval} event indicating the updated allowance.     * Requirements:     * - `spender` cannot be the zero address."
      },
      "name()": {
        "details": "Returns the name of the token."
      },
      "recall(address,uint256)": {
        "details": "transfer a part of reserved amount to the vault     *    Refer to the comment on the vault if you want to know more.",
        "params": {
          "_amount": "the amount of token to be taken",
          "_from": "the address from which the reserved token will be taken"
        }
      },
      "reserve()": {
        "details": "get the amount reserved token of the sender"
      },
      "reserveOf(address)": {
        "details": "get the amount of reserved token"
      },
      "setAdmin(address)": {
        "details": "change admin address",
        "params": {
          "_newAdmin": "new admin address"
        }
      },
      "setOwner(address)": {
        "details": "change owner address",
        "params": {
          "_newOwner": "new owner address"
        }
      },
      "setReserve(address,uint256)": {
        "details": "change the amount of reserved token   reserve should be less than or equal to the current token balance     *    Refer to the comment on the admin if you want to know more.",
        "params": {
          "_address": "the target address whose token will be frozen for future use",
          "_reserve": "the amount of reserved token     "
        }
      },
      "setVault(address)": {
        "details": "change vault address   BEWARE! this withdraw all token from old vault and store it to the new vault           and new vault's allowed, reserve will be set to zero",
        "params": {
          "_newVault": "new vault address"
        }
      },
      "symbol()": {
        "details": "Returns the symbol of the token, usually a shorter version of the name."
      },
      "totalSupply()": {
        "details": "See {IERC20-totalSupply}."
      },
      "transfer(address,uint256)": {
        "details": "transfer token from sender to other        the result balance should be greater than or equal to the reserved token amount"
      },
      "transferFrom(address,address,uint256)": {
        "details": "Transfer tokens from one address to another     * The _from's SDT balance should be larger than the reserved amount(reserves[_from]) plus _value. NOTE: No one can send vault's token using transferFrom     "
      }
    },
    "title": "Sdt contract "
  },
  "userdoc": {
    "methods": {}
  }
}